{
  "contractName": "ERC1132",
  "abi": [
    {
      "constant": false,
      "inputs": [
        {
          "name": "_spender",
          "type": "address"
        },
        {
          "name": "_value",
          "type": "uint256"
        }
      ],
      "name": "approve",
      "outputs": [
        {
          "name": "",
          "type": "bool"
        }
      ],
      "payable": false,
      "stateMutability": "nonpayable",
      "type": "function"
    },
    {
      "constant": true,
      "inputs": [],
      "name": "totalSupply",
      "outputs": [
        {
          "name": "",
          "type": "uint256"
        }
      ],
      "payable": false,
      "stateMutability": "view",
      "type": "function"
    },
    {
      "constant": false,
      "inputs": [
        {
          "name": "_from",
          "type": "address"
        },
        {
          "name": "_to",
          "type": "address"
        },
        {
          "name": "_value",
          "type": "uint256"
        }
      ],
      "name": "transferFrom",
      "outputs": [
        {
          "name": "",
          "type": "bool"
        }
      ],
      "payable": false,
      "stateMutability": "nonpayable",
      "type": "function"
    },
    {
      "constant": false,
      "inputs": [
        {
          "name": "_spender",
          "type": "address"
        },
        {
          "name": "_subtractedValue",
          "type": "uint256"
        }
      ],
      "name": "decreaseApproval",
      "outputs": [
        {
          "name": "",
          "type": "bool"
        }
      ],
      "payable": false,
      "stateMutability": "nonpayable",
      "type": "function"
    },
    {
      "constant": true,
      "inputs": [
        {
          "name": "_owner",
          "type": "address"
        }
      ],
      "name": "balanceOf",
      "outputs": [
        {
          "name": "",
          "type": "uint256"
        }
      ],
      "payable": false,
      "stateMutability": "view",
      "type": "function"
    },
    {
      "constant": true,
      "inputs": [
        {
          "name": "",
          "type": "address"
        },
        {
          "name": "",
          "type": "uint256"
        }
      ],
      "name": "lockReason",
      "outputs": [
        {
          "name": "",
          "type": "bytes32"
        }
      ],
      "payable": false,
      "stateMutability": "view",
      "type": "function"
    },
    {
      "constant": false,
      "inputs": [
        {
          "name": "_to",
          "type": "address"
        },
        {
          "name": "_value",
          "type": "uint256"
        }
      ],
      "name": "transfer",
      "outputs": [
        {
          "name": "",
          "type": "bool"
        }
      ],
      "payable": false,
      "stateMutability": "nonpayable",
      "type": "function"
    },
    {
      "constant": true,
      "inputs": [
        {
          "name": "",
          "type": "address"
        },
        {
          "name": "",
          "type": "bytes32"
        }
      ],
      "name": "locked",
      "outputs": [
        {
          "name": "amount",
          "type": "uint256"
        },
        {
          "name": "validity",
          "type": "uint256"
        },
        {
          "name": "claimed",
          "type": "bool"
        }
      ],
      "payable": false,
      "stateMutability": "view",
      "type": "function"
    },
    {
      "constant": false,
      "inputs": [
        {
          "name": "_spender",
          "type": "address"
        },
        {
          "name": "_addedValue",
          "type": "uint256"
        }
      ],
      "name": "increaseApproval",
      "outputs": [
        {
          "name": "",
          "type": "bool"
        }
      ],
      "payable": false,
      "stateMutability": "nonpayable",
      "type": "function"
    },
    {
      "constant": true,
      "inputs": [
        {
          "name": "_owner",
          "type": "address"
        },
        {
          "name": "_spender",
          "type": "address"
        }
      ],
      "name": "allowance",
      "outputs": [
        {
          "name": "",
          "type": "uint256"
        }
      ],
      "payable": false,
      "stateMutability": "view",
      "type": "function"
    },
    {
      "anonymous": false,
      "inputs": [
        {
          "indexed": true,
          "name": "_of",
          "type": "address"
        },
        {
          "indexed": true,
          "name": "_reason",
          "type": "bytes32"
        },
        {
          "indexed": false,
          "name": "_amount",
          "type": "uint256"
        },
        {
          "indexed": false,
          "name": "_validity",
          "type": "uint256"
        }
      ],
      "name": "Lock",
      "type": "event"
    },
    {
      "anonymous": false,
      "inputs": [
        {
          "indexed": true,
          "name": "_of",
          "type": "address"
        },
        {
          "indexed": true,
          "name": "_reason",
          "type": "bytes32"
        },
        {
          "indexed": false,
          "name": "_amount",
          "type": "uint256"
        }
      ],
      "name": "Unlock",
      "type": "event"
    },
    {
      "anonymous": false,
      "inputs": [
        {
          "indexed": true,
          "name": "owner",
          "type": "address"
        },
        {
          "indexed": true,
          "name": "spender",
          "type": "address"
        },
        {
          "indexed": false,
          "name": "value",
          "type": "uint256"
        }
      ],
      "name": "Approval",
      "type": "event"
    },
    {
      "anonymous": false,
      "inputs": [
        {
          "indexed": true,
          "name": "from",
          "type": "address"
        },
        {
          "indexed": true,
          "name": "to",
          "type": "address"
        },
        {
          "indexed": false,
          "name": "value",
          "type": "uint256"
        }
      ],
      "name": "Transfer",
      "type": "event"
    },
    {
      "constant": false,
      "inputs": [
        {
          "name": "_reason",
          "type": "bytes32"
        },
        {
          "name": "_amount",
          "type": "uint256"
        },
        {
          "name": "_time",
          "type": "uint256"
        }
      ],
      "name": "lock",
      "outputs": [
        {
          "name": "",
          "type": "bool"
        }
      ],
      "payable": false,
      "stateMutability": "nonpayable",
      "type": "function"
    },
    {
      "constant": true,
      "inputs": [
        {
          "name": "_of",
          "type": "address"
        },
        {
          "name": "_reason",
          "type": "bytes32"
        }
      ],
      "name": "tokensLocked",
      "outputs": [
        {
          "name": "amount",
          "type": "uint256"
        }
      ],
      "payable": false,
      "stateMutability": "view",
      "type": "function"
    },
    {
      "constant": true,
      "inputs": [
        {
          "name": "_of",
          "type": "address"
        },
        {
          "name": "_reason",
          "type": "bytes32"
        },
        {
          "name": "_time",
          "type": "uint256"
        }
      ],
      "name": "tokensLockedAtTime",
      "outputs": [
        {
          "name": "amount",
          "type": "uint256"
        }
      ],
      "payable": false,
      "stateMutability": "view",
      "type": "function"
    },
    {
      "constant": true,
      "inputs": [
        {
          "name": "_of",
          "type": "address"
        }
      ],
      "name": "totalBalanceOf",
      "outputs": [
        {
          "name": "amount",
          "type": "uint256"
        }
      ],
      "payable": false,
      "stateMutability": "view",
      "type": "function"
    },
    {
      "constant": false,
      "inputs": [
        {
          "name": "_reason",
          "type": "bytes32"
        },
        {
          "name": "_time",
          "type": "uint256"
        }
      ],
      "name": "extendLock",
      "outputs": [
        {
          "name": "",
          "type": "bool"
        }
      ],
      "payable": false,
      "stateMutability": "nonpayable",
      "type": "function"
    },
    {
      "constant": false,
      "inputs": [
        {
          "name": "_reason",
          "type": "bytes32"
        },
        {
          "name": "_amount",
          "type": "uint256"
        }
      ],
      "name": "increaseLockAmount",
      "outputs": [
        {
          "name": "",
          "type": "bool"
        }
      ],
      "payable": false,
      "stateMutability": "nonpayable",
      "type": "function"
    },
    {
      "constant": true,
      "inputs": [
        {
          "name": "_of",
          "type": "address"
        },
        {
          "name": "_reason",
          "type": "bytes32"
        }
      ],
      "name": "tokensUnlockable",
      "outputs": [
        {
          "name": "amount",
          "type": "uint256"
        }
      ],
      "payable": false,
      "stateMutability": "view",
      "type": "function"
    },
    {
      "constant": false,
      "inputs": [
        {
          "name": "_of",
          "type": "address"
        }
      ],
      "name": "unlock",
      "outputs": [
        {
          "name": "unlockableTokens",
          "type": "uint256"
        }
      ],
      "payable": false,
      "stateMutability": "nonpayable",
      "type": "function"
    },
    {
      "constant": true,
      "inputs": [
        {
          "name": "_of",
          "type": "address"
        }
      ],
      "name": "getUnlockableTokens",
      "outputs": [
        {
          "name": "unlockableTokens",
          "type": "uint256"
        }
      ],
      "payable": false,
      "stateMutability": "view",
      "type": "function"
    }
  ],
  "bytecode": "0x608060405234801561001057600080fd5b50612622806100206000396000f300608060405260043610610107576000357c0100000000000000000000000000000000000000000000000000000000900463ffffffff168063095ea7b31461010c578063179e91f11461017157806318160ddd146101e057806323b872dd1461020b5780632e82aaf2146102905780632f6c493c146102ed5780634b0ee02a146103445780635294d0e81461039b5780635ca48d8c14610400578063661884631461046557806370a08231146104ca57806371d66f001461052157806381fc4d901461058a578063a9059cbb146105dd578063a9dab16714610642578063ab4a2eb314610695578063d71be8db146106ec578063d73dd62314610763578063dd62ed3e146107c8575b600080fd5b34801561011857600080fd5b50610157600480360381019080803573ffffffffffffffffffffffffffffffffffffffff1690602001909291908035906020019092919050505061083f565b604051808215151515815260200191505060405180910390f35b34801561017d57600080fd5b506101ca600480360381019080803573ffffffffffffffffffffffffffffffffffffffff169060200190929190803560001916906020019092919080359060200190929190505050610931565b6040518082815260200191505060405180910390f35b3480156101ec57600080fd5b506101f56109fc565b6040518082815260200191505060405180910390f35b34801561021757600080fd5b50610276600480360381019080803573ffffffffffffffffffffffffffffffffffffffff169060200190929190803573ffffffffffffffffffffffffffffffffffffffff16906020019092919080359060200190929190505050610a06565b604051808215151515815260200191505060405180910390f35b34801561029c57600080fd5b506102d360048036038101908080356000191690602001909291908035906020019092919080359060200190929190505050610dc1565b604051808215151515815260200191505060405180910390f35b3480156102f957600080fd5b5061032e600480360381019080803573ffffffffffffffffffffffffffffffffffffffff169060200190929190505050611110565b6040518082815260200191505060405180910390f35b34801561035057600080fd5b50610385600480360381019080803573ffffffffffffffffffffffffffffffffffffffff16906020019092919050505061149b565b6040518082815260200191505060405180910390f35b3480156103a757600080fd5b506103ea600480360381019080803573ffffffffffffffffffffffffffffffffffffffff16906020019092919080356000191690602001909291905050506115bc565b6040518082815260200191505060405180910390f35b34801561040c57600080fd5b5061044f600480360381019080803573ffffffffffffffffffffffffffffffffffffffff16906020019092919080356000191690602001909291905050506116f9565b6040518082815260200191505060405180910390f35b34801561047157600080fd5b506104b0600480360381019080803573ffffffffffffffffffffffffffffffffffffffff169060200190929190803590602001909291905050506117cf565b604051808215151515815260200191505060405180910390f35b3480156104d657600080fd5b5061050b600480360381019080803573ffffffffffffffffffffffffffffffffffffffff169060200190929190505050611a61565b6040518082815260200191505060405180910390f35b34801561052d57600080fd5b5061056c600480360381019080803573ffffffffffffffffffffffffffffffffffffffff16906020019092919080359060200190929190505050611aa9565b60405180826000191660001916815260200191505060405180910390f35b34801561059657600080fd5b506105c3600480360381019080803560001916906020019092919080359060200190929190505050611ad9565b604051808215151515815260200191505060405180910390f35b3480156105e957600080fd5b50610628600480360381019080803573ffffffffffffffffffffffffffffffffffffffff16906020019092919080359060200190929190505050611e00565b604051808215151515815260200191505060405180910390f35b34801561064e57600080fd5b5061067b600480360381019080803560001916906020019092919080359060200190929190505050612020565b604051808215151515815260200191505060405180910390f35b3480156106a157600080fd5b506106d6600480360381019080803573ffffffffffffffffffffffffffffffffffffffff169060200190929190505050612221565b6040518082815260200191505060405180910390f35b3480156106f857600080fd5b5061073b600480360381019080803573ffffffffffffffffffffffffffffffffffffffff16906020019092919080356000191690602001909291905050506122fa565b6040518084815260200183815260200182151515158152602001935050505060405180910390f35b34801561076f57600080fd5b506107ae600480360381019080803573ffffffffffffffffffffffffffffffffffffffff1690602001909291908035906020019092919050505061233e565b604051808215151515815260200191505060405180910390f35b3480156107d457600080fd5b50610829600480360381019080803573ffffffffffffffffffffffffffffffffffffffff169060200190929190803573ffffffffffffffffffffffffffffffffffffffff16906020019092919050505061253a565b6040518082815260200191505060405180910390f35b600081600260003373ffffffffffffffffffffffffffffffffffffffff1673ffffffffffffffffffffffffffffffffffffffff16815260200190815260200160002060008573ffffffffffffffffffffffffffffffffffffffff1673ffffffffffffffffffffffffffffffffffffffff168152602001908152602001600020819055508273ffffffffffffffffffffffffffffffffffffffff163373ffffffffffffffffffffffffffffffffffffffff167f8c5be1e5ebec7d5bd14f71427d1e84f3dd0314c0f7b2291e5b200ac8c7c3b925846040518082815260200191505060405180910390a36001905092915050565b600081600460008673ffffffffffffffffffffffffffffffffffffffff1673ffffffffffffffffffffffffffffffffffffffff168152602001908152602001600020600085600019166000191681526020019081526020016000206001015411156109f557600460008573ffffffffffffffffffffffffffffffffffffffff1673ffffffffffffffffffffffffffffffffffffffff168152602001908152602001600020600084600019166000191681526020019081526020016000206000015490505b9392505050565b6000600154905090565b60008060008573ffffffffffffffffffffffffffffffffffffffff1673ffffffffffffffffffffffffffffffffffffffff168152602001908152602001600020548211151515610a5557600080fd5b600260008573ffffffffffffffffffffffffffffffffffffffff1673ffffffffffffffffffffffffffffffffffffffff16815260200190815260200160002060003373ffffffffffffffffffffffffffffffffffffffff1673ffffffffffffffffffffffffffffffffffffffff168152602001908152602001600020548211151515610ae057600080fd5b600073ffffffffffffffffffffffffffffffffffffffff168373ffffffffffffffffffffffffffffffffffffffff1614151515610b1c57600080fd5b610b6d826000808773ffffffffffffffffffffffffffffffffffffffff1673ffffffffffffffffffffffffffffffffffffffff168152602001908152602001600020546125c190919063ffffffff16565b6000808673ffffffffffffffffffffffffffffffffffffffff1673ffffffffffffffffffffffffffffffffffffffff16815260200190815260200160002081905550610c00826000808673ffffffffffffffffffffffffffffffffffffffff1673ffffffffffffffffffffffffffffffffffffffff168152602001908152602001600020546125da90919063ffffffff16565b6000808573ffffffffffffffffffffffffffffffffffffffff1673ffffffffffffffffffffffffffffffffffffffff16815260200190815260200160002081905550610cd182600260008773ffffffffffffffffffffffffffffffffffffffff1673ffffffffffffffffffffffffffffffffffffffff16815260200190815260200160002060003373ffffffffffffffffffffffffffffffffffffffff1673ffffffffffffffffffffffffffffffffffffffff168152602001908152602001600020546125c190919063ffffffff16565b600260008673ffffffffffffffffffffffffffffffffffffffff1673ffffffffffffffffffffffffffffffffffffffff16815260200190815260200160002060003373ffffffffffffffffffffffffffffffffffffffff1673ffffffffffffffffffffffffffffffffffffffff168152602001908152602001600020819055508273ffffffffffffffffffffffffffffffffffffffff168473ffffffffffffffffffffffffffffffffffffffff167fddf252ad1be2c89b69c2b068fc378daa952ba7f163c4a11628f55a4df523b3ef846040518082815260200191505060405180910390a3600190509392505050565b600080610dd783426125da90919063ffffffff16565b90506000610de533876116f9565b141515610df157600080fd5b60008414151515610e0157600080fd5b6000600460003373ffffffffffffffffffffffffffffffffffffffff1673ffffffffffffffffffffffffffffffffffffffff16815260200190815260200160002060008760001916600019168152602001908152602001600020600001541415610ed557600360003373ffffffffffffffffffffffffffffffffffffffff1673ffffffffffffffffffffffffffffffffffffffff1681526020019081526020016000208590806001815401808255809150509060018203906000526020600020016000909192909190915090600019169055505b610f26846000803373ffffffffffffffffffffffffffffffffffffffff1673ffffffffffffffffffffffffffffffffffffffff168152602001908152602001600020546125c190919063ffffffff16565b6000803373ffffffffffffffffffffffffffffffffffffffff1673ffffffffffffffffffffffffffffffffffffffff16815260200190815260200160002081905550610fb9846000803073ffffffffffffffffffffffffffffffffffffffff1673ffffffffffffffffffffffffffffffffffffffff168152602001908152602001600020546125da90919063ffffffff16565b6000803073ffffffffffffffffffffffffffffffffffffffff1673ffffffffffffffffffffffffffffffffffffffff1681526020019081526020016000208190555060606040519081016040528085815260200182815260200160001515815250600460003373ffffffffffffffffffffffffffffffffffffffff1673ffffffffffffffffffffffffffffffffffffffff16815260200190815260200160002060008760001916600019168152602001908152602001600020600082015181600001556020820151816001015560408201518160020160006101000a81548160ff02191690831515021790555090505084600019163373ffffffffffffffffffffffffffffffffffffffff167fd173f98f4a2080eab40a0bff4d9a575753270cb2401c74efdec1feb0ba31b4268684604051808381526020018281526020019250505060405180910390a360019150509392505050565b60008060008090505b600360008573ffffffffffffffffffffffffffffffffffffffff1673ffffffffffffffffffffffffffffffffffffffff16815260200190815260200160002080549050811015611364576111c384600360008773ffffffffffffffffffffffffffffffffffffffff1673ffffffffffffffffffffffffffffffffffffffff168152602001908152602001600020838154811015156111b357fe5b90600052602060002001546115bc565b91506000821115611357576111e182846125da90919063ffffffff16565b92506001600460008673ffffffffffffffffffffffffffffffffffffffff1673ffffffffffffffffffffffffffffffffffffffff1681526020019081526020016000206000600360008873ffffffffffffffffffffffffffffffffffffffff1673ffffffffffffffffffffffffffffffffffffffff1681526020019081526020016000208481548110151561127257fe5b90600052602060002001546000191660001916815260200190815260200160002060020160006101000a81548160ff021916908315150217905550600360008573ffffffffffffffffffffffffffffffffffffffff1673ffffffffffffffffffffffffffffffffffffffff168152602001908152602001600020818154811015156112f957fe5b9060005260206000200154600019168473ffffffffffffffffffffffffffffffffffffffff167f0c35a7765dc80648aa68cb8cf542e73a11500a6e58527cfe7aea2bf7e6b89c87846040518082815260200191505060405180910390a35b8080600101915050611119565b6000831115611494576113be836000803073ffffffffffffffffffffffffffffffffffffffff1673ffffffffffffffffffffffffffffffffffffffff168152602001908152602001600020546125c190919063ffffffff16565b6000803073ffffffffffffffffffffffffffffffffffffffff1673ffffffffffffffffffffffffffffffffffffffff16815260200190815260200160002081905550611451836000808773ffffffffffffffffffffffffffffffffffffffff1673ffffffffffffffffffffffffffffffffffffffff168152602001908152602001600020546125da90919063ffffffff16565b6000808673ffffffffffffffffffffffffffffffffffffffff1673ffffffffffffffffffffffffffffffffffffffff168152602001908152602001600020819055505b5050919050565b60008060008090505b600360008573ffffffffffffffffffffffffffffffffffffffff1673ffffffffffffffffffffffffffffffffffffffff1681526020019081526020016000208054905081101561155f5761154e84600360008773ffffffffffffffffffffffffffffffffffffffff1673ffffffffffffffffffffffffffffffffffffffff1681526020019081526020016000208381548110151561153e57fe5b90600052602060002001546116f9565b8201915080806001019150506114a4565b6115b0826000808773ffffffffffffffffffffffffffffffffffffffff1673ffffffffffffffffffffffffffffffffffffffff168152602001908152602001600020546125da90919063ffffffff16565b92508292505050919050565b600042600460008573ffffffffffffffffffffffffffffffffffffffff1673ffffffffffffffffffffffffffffffffffffffff16815260200190815260200160002060008460001916600019168152602001908152602001600020600101541115801561168f5750600460008473ffffffffffffffffffffffffffffffffffffffff1673ffffffffffffffffffffffffffffffffffffffff1681526020019081526020016000206000836000191660001916815260200190815260200160002060020160009054906101000a900460ff16155b156116f357600460008473ffffffffffffffffffffffffffffffffffffffff1673ffffffffffffffffffffffffffffffffffffffff168152602001908152602001600020600083600019166000191681526020019081526020016000206000015490505b92915050565b6000600460008473ffffffffffffffffffffffffffffffffffffffff1673ffffffffffffffffffffffffffffffffffffffff1681526020019081526020016000206000836000191660001916815260200190815260200160002060020160009054906101000a900460ff1615156117c957600460008473ffffffffffffffffffffffffffffffffffffffff1673ffffffffffffffffffffffffffffffffffffffff168152602001908152602001600020600083600019166000191681526020019081526020016000206000015490505b92915050565b600080600260003373ffffffffffffffffffffffffffffffffffffffff1673ffffffffffffffffffffffffffffffffffffffff16815260200190815260200160002060008573ffffffffffffffffffffffffffffffffffffffff1673ffffffffffffffffffffffffffffffffffffffff16815260200190815260200160002054905080831015156118e1576000600260003373ffffffffffffffffffffffffffffffffffffffff1673ffffffffffffffffffffffffffffffffffffffff16815260200190815260200160002060008673ffffffffffffffffffffffffffffffffffffffff1673ffffffffffffffffffffffffffffffffffffffff16815260200190815260200160002081905550611975565b6118f483826125c190919063ffffffff16565b600260003373ffffffffffffffffffffffffffffffffffffffff1673ffffffffffffffffffffffffffffffffffffffff16815260200190815260200160002060008673ffffffffffffffffffffffffffffffffffffffff1673ffffffffffffffffffffffffffffffffffffffff168152602001908152602001600020819055505b8373ffffffffffffffffffffffffffffffffffffffff163373ffffffffffffffffffffffffffffffffffffffff167f8c5be1e5ebec7d5bd14f71427d1e84f3dd0314c0f7b2291e5b200ac8c7c3b925600260003373ffffffffffffffffffffffffffffffffffffffff1673ffffffffffffffffffffffffffffffffffffffff16815260200190815260200160002060008873ffffffffffffffffffffffffffffffffffffffff1673ffffffffffffffffffffffffffffffffffffffff168152602001908152602001600020546040518082815260200191505060405180910390a3600191505092915050565b60008060008373ffffffffffffffffffffffffffffffffffffffff1673ffffffffffffffffffffffffffffffffffffffff168152602001908152602001600020549050919050565b600360205281600052604060002081815481101515611ac457fe5b90600052602060002001600091509150505481565b600080611ae633856116f9565b111515611af257600080fd5b611b43826000803373ffffffffffffffffffffffffffffffffffffffff1673ffffffffffffffffffffffffffffffffffffffff168152602001908152602001600020546125c190919063ffffffff16565b6000803373ffffffffffffffffffffffffffffffffffffffff1673ffffffffffffffffffffffffffffffffffffffff16815260200190815260200160002081905550611bd6826000803073ffffffffffffffffffffffffffffffffffffffff1673ffffffffffffffffffffffffffffffffffffffff168152602001908152602001600020546125da90919063ffffffff16565b6000803073ffffffffffffffffffffffffffffffffffffffff1673ffffffffffffffffffffffffffffffffffffffff16815260200190815260200160002081905550611c8682600460003373ffffffffffffffffffffffffffffffffffffffff1673ffffffffffffffffffffffffffffffffffffffff16815260200190815260200160002060008660001916600019168152602001908152602001600020600001546125da90919063ffffffff16565b600460003373ffffffffffffffffffffffffffffffffffffffff1673ffffffffffffffffffffffffffffffffffffffff168152602001908152602001600020600085600019166000191681526020019081526020016000206000018190555082600019163373ffffffffffffffffffffffffffffffffffffffff167fd173f98f4a2080eab40a0bff4d9a575753270cb2401c74efdec1feb0ba31b426600460003373ffffffffffffffffffffffffffffffffffffffff1673ffffffffffffffffffffffffffffffffffffffff1681526020019081526020016000206000876000191660001916815260200190815260200160002060000154600460003373ffffffffffffffffffffffffffffffffffffffff1673ffffffffffffffffffffffffffffffffffffffff1681526020019081526020016000206000886000191660001916815260200190815260200160002060010154604051808381526020018281526020019250505060405180910390a36001905092915050565b60008060003373ffffffffffffffffffffffffffffffffffffffff1673ffffffffffffffffffffffffffffffffffffffff168152602001908152602001600020548211151515611e4f57600080fd5b600073ffffffffffffffffffffffffffffffffffffffff168373ffffffffffffffffffffffffffffffffffffffff1614151515611e8b57600080fd5b611edc826000803373ffffffffffffffffffffffffffffffffffffffff1673ffffffffffffffffffffffffffffffffffffffff168152602001908152602001600020546125c190919063ffffffff16565b6000803373ffffffffffffffffffffffffffffffffffffffff1673ffffffffffffffffffffffffffffffffffffffff16815260200190815260200160002081905550611f6f826000808673ffffffffffffffffffffffffffffffffffffffff1673ffffffffffffffffffffffffffffffffffffffff168152602001908152602001600020546125da90919063ffffffff16565b6000808573ffffffffffffffffffffffffffffffffffffffff1673ffffffffffffffffffffffffffffffffffffffff168152602001908152602001600020819055508273ffffffffffffffffffffffffffffffffffffffff163373ffffffffffffffffffffffffffffffffffffffff167fddf252ad1be2c89b69c2b068fc378daa952ba7f163c4a11628f55a4df523b3ef846040518082815260200191505060405180910390a36001905092915050565b60008061202d33856116f9565b11151561203957600080fd5b6120a782600460003373ffffffffffffffffffffffffffffffffffffffff1673ffffffffffffffffffffffffffffffffffffffff16815260200190815260200160002060008660001916600019168152602001908152602001600020600101546125da90919063ffffffff16565b600460003373ffffffffffffffffffffffffffffffffffffffff1673ffffffffffffffffffffffffffffffffffffffff168152602001908152602001600020600085600019166000191681526020019081526020016000206001018190555082600019163373ffffffffffffffffffffffffffffffffffffffff167fd173f98f4a2080eab40a0bff4d9a575753270cb2401c74efdec1feb0ba31b426600460003373ffffffffffffffffffffffffffffffffffffffff1673ffffffffffffffffffffffffffffffffffffffff1681526020019081526020016000206000876000191660001916815260200190815260200160002060000154600460003373ffffffffffffffffffffffffffffffffffffffff1673ffffffffffffffffffffffffffffffffffffffff1681526020019081526020016000206000886000191660001916815260200190815260200160002060010154604051808381526020018281526020019250505060405180910390a36001905092915050565b600080600090505b600360008473ffffffffffffffffffffffffffffffffffffffff1673ffffffffffffffffffffffffffffffffffffffff168152602001908152602001600020805490508110156122f4576122e56122d684600360008773ffffffffffffffffffffffffffffffffffffffff1673ffffffffffffffffffffffffffffffffffffffff168152602001908152602001600020848154811015156122c657fe5b90600052602060002001546115bc565b836125da90919063ffffffff16565b91508080600101915050612229565b50919050565b6004602052816000526040600020602052806000526040600020600091509150508060000154908060010154908060020160009054906101000a900460ff16905083565b60006123cf82600260003373ffffffffffffffffffffffffffffffffffffffff1673ffffffffffffffffffffffffffffffffffffffff16815260200190815260200160002060008673ffffffffffffffffffffffffffffffffffffffff1673ffffffffffffffffffffffffffffffffffffffff168152602001908152602001600020546125da90919063ffffffff16565b600260003373ffffffffffffffffffffffffffffffffffffffff1673ffffffffffffffffffffffffffffffffffffffff16815260200190815260200160002060008573ffffffffffffffffffffffffffffffffffffffff1673ffffffffffffffffffffffffffffffffffffffff168152602001908152602001600020819055508273ffffffffffffffffffffffffffffffffffffffff163373ffffffffffffffffffffffffffffffffffffffff167f8c5be1e5ebec7d5bd14f71427d1e84f3dd0314c0f7b2291e5b200ac8c7c3b925600260003373ffffffffffffffffffffffffffffffffffffffff1673ffffffffffffffffffffffffffffffffffffffff16815260200190815260200160002060008773ffffffffffffffffffffffffffffffffffffffff1673ffffffffffffffffffffffffffffffffffffffff168152602001908152602001600020546040518082815260200191505060405180910390a36001905092915050565b6000600260008473ffffffffffffffffffffffffffffffffffffffff1673ffffffffffffffffffffffffffffffffffffffff16815260200190815260200160002060008373ffffffffffffffffffffffffffffffffffffffff1673ffffffffffffffffffffffffffffffffffffffff16815260200190815260200160002054905092915050565b60008282111515156125cf57fe5b818303905092915050565b600081830190508281101515156125ed57fe5b809050929150505600a165627a7a7230582004c9ac62a631434cd4f947c16971bf63674c7d583b5f728805a0119d024bcb6c0029",
  "source": "pragma solidity ^0.4.24;\r\n\r\nimport 'zeppelin-solidity/contracts/token/ERC20/StandardToken.sol';\r\n\r\ncontract ERC1132 is StandardToken {\r\n    /**\r\n     * @dev Reasons why a user's tokens have been locked\r\n     */\r\n    mapping(address => bytes32[]) public lockReason;\r\n\r\n    struct lockToken {\r\n        uint256 amount;\r\n        uint256 validity;\r\n        bool claimed;\r\n    }\r\n\r\n    /**\r\n     * @dev Holds number & validity of tokens locked for a given reason for\r\n     *      a specified address\r\n     */\r\n    mapping(address => mapping(bytes32 => lockToken)) public locked;\r\n\r\n    event Lock(\r\n        address indexed _of,\r\n        bytes32 indexed _reason,\r\n        uint256 _amount,\r\n        uint256 _validity\r\n    );\r\n\r\n    /**\r\n     * @dev Records data of all the tokens unlocked\r\n     */\r\n    event Unlock(\r\n        address indexed _of,\r\n        bytes32 indexed _reason,\r\n        uint256 _amount\r\n    );\r\n    \r\n    /**\r\n     * @dev Locks a specified amount of tokens against an address,\r\n     *      for a specified reason and time\r\n     * @param _reason The reason to lock tokens\r\n     * @param _amount Number of tokens to be locked\r\n     * @param _time Lock time in seconds\r\n     */\r\n    function lock(bytes32 _reason, uint256 _amount, uint256 _time)\r\n        public\r\n        returns (bool)\r\n    {\r\n        uint256 validUntil = block.timestamp.add(_time);\r\n        // If tokens are already locked, the functions extendLock or\r\n        // increaseLockAmount should be used to make any changes\r\n        require(tokensLocked(msg.sender, _reason) == 0);\r\n        require(_amount != 0);\r\n        if (locked[msg.sender][_reason].amount == 0)\r\n            lockReason[msg.sender].push(_reason);\r\n        balances[msg.sender] = balances[msg.sender].sub(_amount);\r\n        balances[address(this)] = balances[address(this)].add(_amount);\r\n        locked[msg.sender][_reason] = lockToken(_amount, validUntil, false);\r\n        emit Lock(msg.sender, _reason, _amount, validUntil);\r\n        return true;\r\n    }\r\n\r\n    /**\r\n     * @dev Returns tokens locked for a specified address for a\r\n     *      specified reason\r\n     *\r\n     * @param _of The address whose tokens are locked\r\n     * @param _reason The reason to query the lock tokens for\r\n     */\r\n    function tokensLocked(address _of, bytes32 _reason)\r\n        public\r\n        view\r\n        returns (uint256 amount)\r\n    {\r\n        if (!locked[_of][_reason].claimed)\r\n            amount = locked[_of][_reason].amount;\r\n    }\r\n    \r\n    /**\r\n     * @dev Returns tokens locked for a specified address for a\r\n     *      specified reason at a specific time\r\n     *\r\n     * @param _of The address whose tokens are locked\r\n     * @param _reason The reason to query the lock tokens for\r\n     * @param _time The timestamp to query the lock tokens for\r\n     */\r\n    function tokensLockedAtTime(address _of, bytes32 _reason, uint256 _time)\r\n        public\r\n        view\r\n        returns (uint256 amount)\r\n    {\r\n        if (locked[_of][_reason].validity > _time)\r\n            amount = locked[_of][_reason].amount;\r\n    }\r\n\r\n    /**\r\n     * @dev Returns total tokens held by an address (locked + transferable)\r\n     * @param _of The address to query the total balance of\r\n     */\r\n    function totalBalanceOf(address _of)\r\n        public\r\n        view\r\n        returns (uint256 amount)\r\n    {\r\n        uint256 lockedAmount;\r\n        for (uint256 i = 0; i < lockReason[_of].length; i++) {\r\n            lockedAmount += tokensLocked(_of, lockReason[_of][i]);\r\n        }   \r\n        amount = balances[_of].add(lockedAmount);\r\n        return amount;\r\n    }    \r\n    \r\n    /**\r\n     * @dev Extends lock for a specified reason and time\r\n     * @param _reason The reason to lock tokens\r\n     * @param _time Lock extension time in seconds\r\n     */\r\n    function extendLock(bytes32 _reason, uint256 _time)\r\n        public\r\n        returns (bool)\r\n    {\r\n        require(tokensLocked(msg.sender, _reason) > 0);\r\n        locked[msg.sender][_reason].validity = locked[msg.sender][_reason].validity.add(_time);\r\n        emit Lock(msg.sender, _reason, locked[msg.sender][_reason].amount, locked[msg.sender][_reason].validity);\r\n        return true;\r\n    }\r\n    \r\n    /**\r\n     * @dev Increase number of tokens locked for a specified reason\r\n     * @param _reason The reason to lock tokens\r\n     * @param _amount Number of tokens to be increased\r\n     */\r\n    function increaseLockAmount(bytes32 _reason, uint256 _amount)\r\n        public\r\n        returns (bool)\r\n    {\r\n        require(tokensLocked(msg.sender, _reason) > 0);\r\n        balances[msg.sender] = balances[msg.sender].sub(_amount);\r\n        balances[address(this)] = balances[address(this)].add(_amount);\r\n        locked[msg.sender][_reason].amount = locked[msg.sender][_reason].amount.add(_amount);\r\n        emit Lock(msg.sender, _reason, locked[msg.sender][_reason].amount, locked[msg.sender][_reason].validity);\r\n        return true;\r\n    }\r\n\r\n    /**\r\n     * @dev Returns unlockable tokens for a specified address for a specified reason\r\n     * @param _of The address to query the the unlockable token count of\r\n     * @param _reason The reason to query the unlockable tokens for\r\n     */\r\n    function tokensUnlockable(address _of, bytes32 _reason)\r\n        public\r\n        view\r\n        returns (uint256 amount)\r\n    {\r\n        if (locked[_of][_reason].validity <= now && !locked[_of][_reason].claimed)\r\n            amount = locked[_of][_reason].amount;\r\n    }\r\n\r\n    /**\r\n     * @dev Unlocks the unlockable tokens of a specified address\r\n     * @param _of Address of user, claiming back unlockable tokens\r\n     */\r\n    function unlock(address _of)\r\n        public\r\n        returns (uint256 unlockableTokens)\r\n    {\r\n        uint lockedTokens;\r\n        for (uint256 i = 0; i < lockReason[_of].length; i++) {\r\n            lockedTokens = tokensUnlockable(_of, lockReason[_of][i]);\r\n            if (lockedTokens > 0) {\r\n                unlockableTokens = unlockableTokens.add(lockedTokens);\r\n                locked[_of][lockReason[_of][i]].claimed = true;\r\n                emit Unlock(_of, lockReason[_of][i], lockedTokens);\r\n            }\r\n        }  \r\n        if(unlockableTokens > 0) {\r\n            balances[address(this)] = balances[address(this)].sub(unlockableTokens); \r\n            balances[_of] = balances[_of].add(unlockableTokens);\r\n        } \r\n    }\r\n\r\n    /**\r\n     * @dev Gets the unlockable tokens of a specified address\r\n     * @param _of The address to query the the unlockable token count of\r\n     */\r\n    function getUnlockableTokens(address _of)\r\n        public\r\n        view\r\n        returns (uint256 unlockableTokens)\r\n    {\r\n        for (uint256 i = 0; i < lockReason[_of].length; i++) {\r\n            unlockableTokens = unlockableTokens.add(tokensUnlockable(_of, lockReason[_of][i]));\r\n        }  \r\n    }\r\n}",
  "sourcePath": "/mnt/c/Users/ishimaru/workspace/my_erc20_token/contracts/ERC1132.sol",
  "compiler": {
    "name": "solc",
    "version": "0.4.24+commit.e67f0147.Emscripten.clang"
  },
  "schemaVersion": "2.0.1",
  "updatedAt": "2018-08-22T11:22:05.631Z"
}